{
  "contractName": "Lottery",
  "abi": [
    {
      "inputs": [
        {
          "internalType": "address",
          "name": "_ethUsdPriceFeed",
          "type": "address"
        },
        {
          "internalType": "uint256",
          "name": "_usdEntryFee",
          "type": "uint256"
        },
        {
          "internalType": "address",
          "name": "_vrfCoordinator",
          "type": "address"
        },
        {
          "internalType": "address",
          "name": "_link",
          "type": "address"
        },
        {
          "internalType": "bytes32",
          "name": "_keyHash",
          "type": "bytes32"
        }
      ],
      "stateMutability": "nonpayable",
      "type": "constructor"
    },
    {
      "anonymous": false,
      "inputs": [
        {
          "indexed": false,
          "internalType": "bytes32",
          "name": "requestId",
          "type": "bytes32"
        }
      ],
      "name": "RequestedRandomness",
      "type": "event"
    },
    {
      "inputs": [],
      "name": "_randomness",
      "outputs": [
        {
          "internalType": "uint256",
          "name": "",
          "type": "uint256"
        }
      ],
      "stateMutability": "view",
      "type": "function"
    },
    {
      "inputs": [],
      "name": "fee",
      "outputs": [
        {
          "internalType": "uint256",
          "name": "",
          "type": "uint256"
        }
      ],
      "stateMutability": "view",
      "type": "function"
    },
    {
      "inputs": [],
      "name": "lotteryState",
      "outputs": [
        {
          "internalType": "enum Lottery.LotteryState",
          "name": "",
          "type": "uint8"
        }
      ],
      "stateMutability": "view",
      "type": "function"
    },
    {
      "inputs": [],
      "name": "owner",
      "outputs": [
        {
          "internalType": "address",
          "name": "",
          "type": "address"
        }
      ],
      "stateMutability": "view",
      "type": "function"
    },
    {
      "inputs": [
        {
          "internalType": "uint256",
          "name": "",
          "type": "uint256"
        }
      ],
      "name": "players",
      "outputs": [
        {
          "internalType": "address payable",
          "name": "",
          "type": "address"
        }
      ],
      "stateMutability": "view",
      "type": "function"
    },
    {
      "inputs": [
        {
          "internalType": "bytes32",
          "name": "requestId",
          "type": "bytes32"
        },
        {
          "internalType": "uint256",
          "name": "randomness",
          "type": "uint256"
        }
      ],
      "name": "rawFulfillRandomness",
      "outputs": [],
      "stateMutability": "nonpayable",
      "type": "function"
    },
    {
      "inputs": [],
      "name": "recentWinner",
      "outputs": [
        {
          "internalType": "address",
          "name": "",
          "type": "address"
        }
      ],
      "stateMutability": "view",
      "type": "function"
    },
    {
      "inputs": [],
      "name": "usdEntryFee",
      "outputs": [
        {
          "internalType": "uint256",
          "name": "",
          "type": "uint256"
        }
      ],
      "stateMutability": "view",
      "type": "function"
    },
    {
      "inputs": [],
      "name": "enter",
      "outputs": [],
      "stateMutability": "payable",
      "type": "function"
    },
    {
      "inputs": [],
      "name": "getEntranceFee",
      "outputs": [
        {
          "internalType": "uint256",
          "name": "",
          "type": "uint256"
        }
      ],
      "stateMutability": "view",
      "type": "function"
    },
    {
      "inputs": [],
      "name": "getLatestEthUsdPrice",
      "outputs": [
        {
          "internalType": "uint256",
          "name": "",
          "type": "uint256"
        }
      ],
      "stateMutability": "view",
      "type": "function"
    },
    {
      "inputs": [],
      "name": "startLottery",
      "outputs": [],
      "stateMutability": "nonpayable",
      "type": "function"
    },
    {
      "inputs": [
        {
          "internalType": "uint256",
          "name": "_seed",
          "type": "uint256"
        }
      ],
      "name": "endLottery",
      "outputs": [],
      "stateMutability": "nonpayable",
      "type": "function"
    }
  ],
  "bytecode": "0x60c060405234801561001057600080fd5b506040516112a43803806112a4833981810160405260a081101561003357600080fd5b81019080805190602001909291908051906020019092919080519060200190929190805190602001909291908051906020019092919050505082828173ffffffffffffffffffffffffffffffffffffffff1660a08173ffffffffffffffffffffffffffffffffffffffff1660601b815250508073ffffffffffffffffffffffffffffffffffffffff1660808173ffffffffffffffffffffffffffffffffffffffff1660601b81525050505084600160006101000a81548173ffffffffffffffffffffffffffffffffffffffff021916908373ffffffffffffffffffffffffffffffffffffffff1602179055508360028190555060018060146101000a81548160ff0219169083600281111561014457fe5b021790555033600660006101000a81548173ffffffffffffffffffffffffffffffffffffffff021916908373ffffffffffffffffffffffffffffffffffffffff16021790555067016345785d8a000060048190555080600881905550505050505060805160601c60a05160601c6110d16101d36000398061075d5280610ca6525080610c6a52506110d16000f3fe6080604052600436106100c25760003560e01c806388ab139a1161007f57806394985ddd1161005957806394985ddd146102ac578063ddca3f43146102f1578063e97dcb621461031c578063f71d96cb14610326576100c2565b806388ab139a146101ff578063894f27ff1461022a5780638da5cb5b14610255576100c2565b806309bc33a7146100c7578063160344e2146100f257806330214599146101095780633739e769146101345780634f8c70cf1461016f5780636939864b146101c6575b600080fd5b3480156100d357600080fd5b506100dc6103a1565b6040518082815260200191505060405180910390f35b3480156100fe57600080fd5b506101076103dc565b005b34801561011557600080fd5b5061011e6104ff565b6040518082815260200191505060405180910390f35b34801561014057600080fd5b5061016d6004803603602081101561015757600080fd5b81019080803590602001909291905050506105e8565b005b34801561017b57600080fd5b506101846106f0565b604051808273ffffffffffffffffffffffffffffffffffffffff1673ffffffffffffffffffffffffffffffffffffffff16815260200191505060405180910390f35b3480156101d257600080fd5b506101db610716565b604051808260028111156101eb57fe5b60ff16815260200191505060405180910390f35b34801561020b57600080fd5b50610214610729565b6040518082815260200191505060405180910390f35b34801561023657600080fd5b5061023f61072f565b6040518082815260200191505060405180910390f35b34801561026157600080fd5b5061026a610735565b604051808273ffffffffffffffffffffffffffffffffffffffff1673ffffffffffffffffffffffffffffffffffffffff16815260200191505060405180910390f35b3480156102b857600080fd5b506102ef600480360360408110156102cf57600080fd5b81019080803590602001909291908035906020019092919050505061075b565b005b3480156102fd57600080fd5b5061030661082a565b6040518082815260200191505060405180910390f35b610324610830565b005b34801561033257600080fd5b5061035f6004803603602081101561034957600080fd5b8101908080359060200190929190505050610944565b604051808273ffffffffffffffffffffffffffffffffffffffff1673ffffffffffffffffffffffffffffffffffffffff16815260200191505060405180910390f35b600080670de0b6b3a7640000905060006103b96104ff565b905060006305f5e100600254028284816103cf57fe5b0402905080935050505090565b600660009054906101000a900473ffffffffffffffffffffffffffffffffffffffff1673ffffffffffffffffffffffffffffffffffffffff163373ffffffffffffffffffffffffffffffffffffffff161461043657600080fd5b6001600281111561044357fe5b600160149054906101000a900460ff16600281111561045e57fe5b146104d1576040517f08c379a00000000000000000000000000000000000000000000000000000000081526004018080602001828103825260188152602001807f4c6f74746572792043757272656e746c7920436c6f736564000000000000000081525060200191505060405180910390fd5b6000600160146101000a81548160ff021916908360028111156104f057fe5b02179055506000600381905550565b600080600080600080600160009054906101000a900473ffffffffffffffffffffffffffffffffffffffff1673ffffffffffffffffffffffffffffffffffffffff1663feaf968c6040518163ffffffff1660e01b815260040160a06040518083038186803b15801561057057600080fd5b505afa158015610584573d6000803e3d6000fd5b505050506040513d60a081101561059a57600080fd5b81019080805190602001909291908051906020019092919080519060200190929190805190602001909291908051906020019092919050505094509450945094509450839550505050505090565b600660009054906101000a900473ffffffffffffffffffffffffffffffffffffffff1673ffffffffffffffffffffffffffffffffffffffff163373ffffffffffffffffffffffffffffffffffffffff161461064257600080fd5b6000600281111561064f57fe5b600160149054906101000a900460ff16600281111561066a57fe5b146106c0576040517f08c379a000000000000000000000000000000000000000000000000000000000815260040180806020018281038252602181526020018061107b6021913960400191505060405180910390fd5b6002600160146101000a81548160ff021916908360028111156106df57fe5b02179055506106ec610980565b5050565b600760009054906101000a900473ffffffffffffffffffffffffffffffffffffffff1681565b600160149054906101000a900460ff1681565b60025481565b60035481565b600660009054906101000a900473ffffffffffffffffffffffffffffffffffffffff1681565b7f000000000000000000000000000000000000000000000000000000000000000073ffffffffffffffffffffffffffffffffffffffff163373ffffffffffffffffffffffffffffffffffffffff161461081c576040517f08c379a000000000000000000000000000000000000000000000000000000000815260040180806020018281038252601f8152602001807f4f6e6c7920565246436f6f7264696e61746f722063616e2066756c66696c6c0081525060200191505060405180910390fd5b6108268282610a5a565b5050565b60045481565b6108386103a1565b3410156108ad576040517f08c379a00000000000000000000000000000000000000000000000000000000081526004018080602001828103825260188152602001807f4e6f7420456e6f7567682045746820746f20656e74657221000000000000000081525060200191505060405180910390fd5b600060028111156108ba57fe5b600160149054906101000a900460ff1660028111156108d557fe5b146108df57600080fd5b6005339080600181540180825580915050600190039060005260206000200160009091909190916101000a81548173ffffffffffffffffffffffffffffffffffffffff021916908373ffffffffffffffffffffffffffffffffffffffff160217905550565b6005818154811061095157fe5b906000526020600020016000915054906101000a900473ffffffffffffffffffffffffffffffffffffffff1681565b6000600660009054906101000a900473ffffffffffffffffffffffffffffffffffffffff1673ffffffffffffffffffffffffffffffffffffffff163373ffffffffffffffffffffffffffffffffffffffff16146109dc57600080fd5b6002808111156109e857fe5b600160149054906101000a900460ff166002811115610a0357fe5b14610a0d57600080fd5b6000610a1d600854600454610c66565b90507fe5f5b44d72d4143c278eb745c4acc0695c4a5bc616be5beecf46abe29661780e816040518082815260200191505060405180910390a15090565b60008111610ad0576040517f08c379a00000000000000000000000000000000000000000000000000000000081526004018080602001828103825260178152602001807f52616e646f6d206e756d626572206e6f7420666f756e6400000000000000000081525060200191505060405180910390fd5b60006005805490508281610ae057fe5b06905060058181548110610af057fe5b9060005260206000200160009054906101000a900473ffffffffffffffffffffffffffffffffffffffff1673ffffffffffffffffffffffffffffffffffffffff166108fc479081150290604051600060405180830381858888f19350505050158015610b60573d6000803e3d6000fd5b5060058181548110610b6e57fe5b9060005260206000200160009054906101000a900473ffffffffffffffffffffffffffffffffffffffff16600760006101000a81548173ffffffffffffffffffffffffffffffffffffffff021916908373ffffffffffffffffffffffffffffffffffffffff160217905550600067ffffffffffffffff81118015610bf157600080fd5b50604051908082528060200260200182016040528015610c205781602001602082028036833780820191505090505b5060059080519060200190610c36929190610fad565b5060018060146101000a81548160ff02191690836002811115610c5557fe5b021790555081600381905550505050565b60007f000000000000000000000000000000000000000000000000000000000000000073ffffffffffffffffffffffffffffffffffffffff16634000aea07f00000000000000000000000000000000000000000000000000000000000000008486600060405160200180838152602001828152602001925050506040516020818303038152906040526040518463ffffffff1660e01b8152600401808473ffffffffffffffffffffffffffffffffffffffff1673ffffffffffffffffffffffffffffffffffffffff16815260200183815260200180602001828103825283818151815260200191508051906020019080838360005b83811015610d76578082015181840152602081019050610d5b565b50505050905090810190601f168015610da35780820380516001836020036101000a031916815260200191505b50945050505050602060405180830381600087803b158015610dc457600080fd5b505af1158015610dd8573d6000803e3d6000fd5b505050506040513d6020811015610dee57600080fd5b8101908080519060200190929190505050506000610e218460003060008089815260200190815260200160002054610e72565b9050610e49600160008087815260200190815260200160002054610eec90919063ffffffff16565b60008086815260200190815260200160002081905550610e698482610f74565b91505092915050565b600084848484604051602001808581526020018481526020018373ffffffffffffffffffffffffffffffffffffffff1673ffffffffffffffffffffffffffffffffffffffff1681526020018281526020019450505050506040516020818303038152906040528051906020012060001c9050949350505050565b600080828401905083811015610f6a576040517f08c379a000000000000000000000000000000000000000000000000000000000815260040180806020018281038252601b8152602001807f536166654d6174683a206164646974696f6e206f766572666c6f77000000000081525060200191505060405180910390fd5b8091505092915050565b60008282604051602001808381526020018281526020019250505060405160208183030381529060405280519060200120905092915050565b828054828255906000526020600020908101928215611026579160200282015b828111156110255782518260006101000a81548173ffffffffffffffffffffffffffffffffffffffff021916908373ffffffffffffffffffffffffffffffffffffffff16021790555091602001919060010190610fcd565b5b5090506110339190611037565b5090565b61107791905b8082111561107357600081816101000a81549073ffffffffffffffffffffffffffffffffffffffff02191690555060010161103d565b5090565b9056fe596f752063616e7420656e64206c6f747465727920617920746869732074696d65a26469706673582212200aad1c1a78baa359e62b5f8a2b0b2a9bc8c2ba7d50313b0d205c244b66e5c1b064736f6c63430006060033",
  "immutableReferences": {
    "76": [
      {
        "length": 32,
        "start": 3178
      }
    ],
    "78": [
      {
        "length": 32,
        "start": 1885
      },
      {
        "length": 32,
        "start": 3238
      }
    ]
  },
  "source": "pragma solidity ^0.6.6;\r\n\r\nimport \"@chainlink/contracts/src/v0.6/interfaces/AggregatorV3Interface.sol\";\r\nimport \"@chainlink/contracts/src/v0.6/vendor/SafeMathChainlink.sol\";\r\nimport \"@chainlink/contracts/src/v0.6/VRFConsumerBase.sol\";\r\n\r\ncontract Lottery is VRFConsumerBase {\r\n    using SafeMathChainlink for uint256;\r\n    AggregatorV3Interface internal ethUsdPriceFeed;\r\n\r\n    enum LotteryState{\r\n        OPEN,\r\n        CLOSE,\r\n        CALCULATING_WINNING\r\n    }\r\n    \r\n    LotteryState public lotteryState;\r\n    uint public usdEntryFee;\r\n    uint public _randomness;\r\n    uint public fee;\r\n    address payable[] public players;\r\n    address public owner;\r\n    address public recentWinner;\r\n    bytes32 keyHash;\r\n\r\n    event RequestedRandomness(bytes32 requestId);\r\n\r\n    modifier onlyOwner {\r\n        require(msg.sender == owner);\r\n        _;\r\n    }\r\n\r\n    // VRFConsumerBase takes the vrfCoordinator and link token address as arguments\r\n    constructor(address _ethUsdPriceFeed, uint _usdEntryFee, address _vrfCoordinator, address _link, bytes32 _keyHash) \r\n        public VRFConsumerBase(_vrfCoordinator, _link) {\r\n            ethUsdPriceFeed = AggregatorV3Interface(_ethUsdPriceFeed);\r\n            usdEntryFee = _usdEntryFee;\r\n            lotteryState = LotteryState.CLOSE;\r\n            owner = msg.sender;\r\n            fee = 100000000000000000;\r\n            keyHash = _keyHash;\r\n    }\r\n\r\n    function enter() public payable{\r\n        require(msg.value >= getEntranceFee(), \"Not Enough Eth to enter!\");\r\n        require(lotteryState == LotteryState.OPEN);\r\n        players.push(msg.sender);\r\n    }\r\n\r\n    function getEntranceFee() public view returns(uint){\r\n        uint precision = 1 * 10 ** 18;\r\n        uint price = getLatestEthUsdPrice();\r\n        uint costTEnter = (precision / price) * (usdEntryFee * 100000000);\r\n        return costTEnter;\r\n    }\r\n\r\n    function getLatestEthUsdPrice() public view returns(uint){\r\n        (\r\n            uint80 roundID,\r\n            int price,\r\n            uint startedAt ,\r\n            uint timeStamp ,\r\n            uint80 answeredInRound\r\n        ) = ethUsdPriceFeed.latestRoundData();\r\n        return uint256(price);\r\n    }\r\n\r\n    function startLottery() public onlyOwner {\r\n        require(lotteryState == LotteryState.CLOSE, \"Lottery Currently Closed\");\r\n        lotteryState = LotteryState.OPEN;\r\n        _randomness = 0;\r\n    }\r\n\r\n    function endLottery(uint _seed) public onlyOwner {\r\n        require(lotteryState == LotteryState.OPEN, \"You cant end lottery ay this time\");\r\n        lotteryState = LotteryState.CALCULATING_WINNING;\r\n        pickWinner();\r\n    }\r\n\r\n    function pickWinner() private onlyOwner returns(bytes32) {\r\n        require(lotteryState == LotteryState.CALCULATING_WINNING);\r\n        bytes32 requestId = requestRandomness(keyHash, fee);\r\n        emit RequestedRandomness(requestId);\r\n    }\r\n\r\n     function fulfillRandomness(bytes32 requestId, uint256 randomness) internal override {\r\n        require(randomness > 0, \"Random number not found\");\r\n        uint index = randomness % players.length;\r\n        \r\n        players[index].transfer(address(this).balance);\r\n        recentWinner = players[index];\r\n        players = new address payable[](0);\r\n        lotteryState = LotteryState.CLOSE;\r\n        _randomness = randomness;\r\n    }\r\n\r\n}\r\n",
  "sourcePath": "C:\\Users\\USER\\Desktop\\Lottery\\contracts\\Lottery.sol",
  "compiler": {
    "name": "solc",
    "version": "0.6.6+commit.6c089d02.Emscripten.clang"
  },
  "schemaVersion": "3.4.6",
  "updatedAt": "2022-04-23T00:46:14.574Z",
  "devdoc": {
    "methods": {}
  },
  "userdoc": {
    "methods": {}
  }
}